:020000020000FC
:1000000002E001BB00E007BB00E00ABB0FEF08BB4A
:100010000DE702BB03E00BBB08E009B900E002B941
:1000200002E00BB908E00AB916B3109530B379B302
:100030007095737030FF746036FF78603D774317BA
:100040002107870789F35527662732FF5F5733FF5C
:100050006F5734FF515835FF61580DEF12D006E04D
:1000600010D0052F0ED0062F0CD000E00AD000E0F3
:1000700008D0012F06D0072F04D0212F432F872F20
:0A008000D3CF5D9BFECF0CB90895AD
:00000001FF
